:100000000C942A000C9447000C9447000C94470071
:100010000C9447000C9447000C9447000C94470044
:100020000C9447000C9447000C9447000C94470034
:100030000C9447000C9447000C9447000C94470024
:100040000C9447000C9447000C9447000C94470014
:100050000C94470011241FBECFE5D8E0DEBFCDBF12
:1000600011E0A0E6B0E0E4E9F3E202C005900D92F1
:10007000A63BB107D9F711E0A6EBB1E001C01D9294
:10008000AB3BB107E1F70E94F80D0C94C8110C943A
:100090000000EF92FF920F931F937B018C0120E0F1
:1000A00030E040E05FE40E94F50388238CF0C80153
:1000B000B70120E030E040E05FE40E94C1010E940F
:1000C000B3049B01AC01205030404040504806C072
:1000D000C801B7010E94B3049B01AC01B901CA0178
:1000E0001F910F91FF90EF900895A0E0B0E0EBE733
:1000F000F0E00C949111DC012B01FA019C919230FB
:1001000008F439C1EB018881823008F433C194309E
:1001100069F4843009F02FC111969C91119789815F
:10012000981709F428C1ADEAB0E025C1843009F47C
:1001300021C18230A9F4923009F01DC19A01AD01AC
:1001400088E0EA010990AE01E90109929E0181501F
:10015000C1F7E201898111969C918923818308C1AD
:10016000923009F407C112962D903C901397EB0141
:100170008A819B811496AD90BD90CD90DC901797AD
:10018000EC80FD800E811F819101281B390BB90184
:1001900037FF04C066277727621B730B6032710537
:1001A0000CF061C0121613066CF537014801062EDB
:1001B00004C096948794779467940A94D2F721E0C8
:1001C00030E040E050E004C0220F331F441F551FB1
:1001D0006A95D2F721503040404050402E213F21B7
:1001E00040235123211531054105510521F021E01E
:1001F00030E040E050E079018A01E628F72808293C
:1002000019293CC0232BD1F1260E371E350146019A
:10021000062E04C096948794779467940A94D2F734
:1002200021E030E040E050E004C0220F331F441FC3
:10023000551F6A95D2F721503040404050402A2146
:100240003B214C215D21211531054105510521F04E
:1002500021E030E040E050E059016A01A628B728CB
:10026000C828D9280BC0821593052CF01C01AA249C
:10027000BB24650103C0EE24FF24870111969C91E5
:10028000D20111968C91981709F445C0992339F041
:10029000A80197012A193B094C095D0906C0A6016E
:1002A00095012E193F09400B510B57FD08C01182D3
:1002B0003382228224833583468357831DC081E0A5
:1002C00081833382228288279927DC01821B930B4A
:1002D000A40BB50B84839583A683B7830DC0220F2F
:1002E000331F441F551F24833583468357838281E0
:1002F000938101979383828324813581468157813D
:10030000DA01C9010197A109B1098F5F9F4FAF4F72
:10031000BF4328F30BC0918333822282EA0CFB1C7B
:100320000C1D1D1DE482F5820683178383E0808304
:10033000248135814681578157FF1AC0C901AA27F8
:1003400097FDA095BA2F81709070A070B0705695EF
:10035000479537952795822B932BA42BB52B848318
:100360009583A683B7838281938101969383828349
:10037000DF0101C0D201CD01CDB7DEB7E2E10C94BF
:10038000AD11A0E2B0E0E7ECF1E00C949D116983BF
:100390007A838B839C832D833E834F835887E9E048
:1003A000EE2EF12CEC0EFD1ECE010196B7010E943F
:1003B000A4068E010F5E1F4FCE010596B8010E9464
:1003C000A4068A8991E089278A8BC701B801AE010A
:1003D000475E5F4F0E9475000E94CF05A096E6E041
:1003E0000C94B911A0E2B0E0E8EFF1E00C949D119B
:1003F00069837A838B839C832D833E834F835887C5
:10040000F9E0EF2EF12CEC0EFD1ECE010196B701A6
:100410000E94A4068E010F5E1F4FCE010596B80103
:100420000E94A406C701B801AE01475E5F4F0E945B
:1004300075000E94CF05A096E6E00C94B911A0E2E9
:10044000B0E0E5E2F2E00C94911169837A838B834A
:100450009C832D833E834F835887CE010196BE0136
:10046000675F7F4F0E94A406CE010596BE016F5EB6
:100470007F4F0E94A4069985923088F08989823046
:10048000C8F0943019F4823051F404C0843029F457
:10049000923081F48DEA90E0C6C0923049F420E0B9
:1004A0009A858A89981321E02A87CE010996BBC0D4
:1004B000823049F420E09A858A89981321E02A8BBA
:1004C000CE014196B0C02D843E844F8458886D88FB
:1004D0007E888F88988CEE24FF248701AA24BB2471
:1004E000650140E050E060E070E0E0E0F0E0C10174
:1004F00081709070892BE9F0E60CF71C081D191D1E
:100500009A01AB012A0D3B1D4C1D5D1D80E090E062
:10051000A0E0B0E0E614F7040805190520F481E036
:1005200090E0A0E0B0E0BA01A901480F591F6A1F8E
:100530007B1FAA0CBB1CCC1CDD1C97FE08C081E0F5
:1005400090E0A0E0B0E0A82AB92ACA2ADB2A3196B6
:10055000E032F10549F0660C771C881C991C569412
:10056000479437942794C3CFFA85EA892B893C892D
:100570008B859C85280F391F2E5F3F4F17C0CA01FE
:1005800081709070892B61F016950795F794E79428
:1005900080E090E0A0E0B0E8E82AF92A0A2B1B2BC3
:1005A00076956795579547952F5F3F4F77FDE7CF36
:1005B0000CC0440F551F661F771F17FD4160EE0CDE
:1005C000FF1C001F111F21503040403090E05907A0
:1005D00090E0690790E4790760F32B8F3C8FDB0193
:1005E000CA018F779070A070B07080349105A1051A
:1005F000B10561F447FD0AC0E114F10401051105DC
:1006000029F0405C5F4F6F4F7F4F40781A8EFE1786
:1006100011F081E08A8F4D8F5E8F6F8F78A383E01A
:10062000898FCE0149960E94CF05A096E2E10C94F5
:10063000AD11A8E1B0E0EFE1F3E00C94991169830A
:100640007A838B839C832D833E834F835887B9E0C5
:10065000EB2EF12CEC0EFD1ECE010196B7010E948F
:10066000A4068E010F5E1F4FCE010596B8010E94B1
:10067000A4062985223008F47EC03989323010F46E
:10068000B8017CC08A859A8989278A87243011F02D
:10069000223031F4231709F06EC06DEA70E06EC0AD
:1006A000343039F41D861E861F86188A1C861B86E8
:1006B00004C0323021F484E08987B7015FC02B8504
:1006C0003C858B899C89281B390B3C872B87ED84C3
:1006D000FE840F851889AD88BE88CF88D88CEA142F
:1006E000FB040C051D0540F4EE0CFF1C001F111F40
:1006F000215030403C872B8720E030E040E050E044
:1007000080E090E0A0E0B0E460E070E0EA14FB0478
:100710000C051D0540F0282B392B4A2B5B2BEA18C2
:10072000FB080C091D09B695A79597958795EE0CC2
:10073000FF1C001F111F6F5F7F4F6F31710531F775
:10074000DA01C9018F779070A070B0708034910584
:10075000A105B10561F427FD0AC0E114F10401050A
:10076000110529F0205C3F4F4F4F5F4F20782D87B8
:100770003E874F87588BBE01675F7F4FCB010E943A
:10078000CF056896EAE00C94B511A8E1B0E0EBEC77
:10079000F3E00C949D1169837A838B839C832D8372
:1007A0003E834F83588789E0E82EF12CEC0EFD1E26
:1007B000CE010196B7010E94A4068E010F5E1F4F65
:1007C000CE010596B8010E94A4068985823040F0CA
:1007D0008989823028F0C701B8010E941C0701C036
:1007E0008FEF6896E6E00C94B911A8E1B0E0EBEF6A
:1007F000F3E00C949D1169837A838B839C832D8312
:100800003E834F83588789E0E82EF12CEC0EFD1EC5
:10081000CE010196B7010E94A4068E010F5E1F4F04
:10082000CE010596B8010E94A4068985823040F069
:100830008989823028F0C701B8010E941C0701C0D5
:100840008FEF6896E6E00C94B911A8E1B0E0EBE216
:10085000F4E00C949D1169837A838B839C832D83B0
:100860003E834F83588789E0E82EF12CEC0EFD1E65
:10087000CE010196B7010E94A4068E010F5E1F4FA4
:10088000CE010596B8010E94A4068985823040F009
:100890008989823028F0C701B8010E941C0701C075
:1008A00081E06896E6E00C94B911A8E0B0E0EBE5D1
:1008B000F4E00C949A119B01AC0183E08983DA0186
:1008C000C9018827B7FD83959927AA27BB27B82E8A
:1008D000211531054105510519F482E089833AC09B
:1008E0008823A9F0203080E0380780E0480780E8BE
:1008F000580729F460E070E080E09FEC30C0EE24FF
:10090000FF248701E21AF30A040B150B02C07901D8
:100910008A018EE1C82ED12CDC82CB82ED82FE8250
:100920000F831887C801B7010E9480050197181628
:10093000190684F4082E04C0EE0CFF1C001F111FC2
:100940000A94D2F7ED82FE820F831887C81AD90A5B
:10095000DC82CB82BA82CE0101960E94CF05289616
:10096000E9E00C94B611ACE0B0E0E9EBF4E00C94F3
:10097000A11169837A838B839C83CE010196BE018A
:100980006B5F7F4F0E94A4068D81823061F18230BF
:1009900050F1843021F48E81882351F12EC02F81B3
:1009A000388537FD20C06E812F3131051CF066235C
:1009B000F9F023C08EE190E0821B930B29853A85E4
:1009C0004B855C8504C056954795379527958A9544
:1009D000D2F76623B1F050954095309521953F4F61
:1009E0004F4F5F4F0EC020E030E040E050E009C0C4
:1009F0002FEF3FEF4FEF5FE704C020E030E040E033
:100A000050E8B901CA012C96E2E00C94BD11A8E0AF
:100A1000B0E0EDE0F5E00C9499117B018C016115DB
:100A200071058105910519F482E0898360C083E036
:100A300089838EE1C82ED12CDC82CB82ED82FE82AE
:100A40000F831887C801B7010E948005FC01319708
:100A5000F7FF3BC0222733272E1B3F0B57016801AE
:100A6000022E04C0D694C794B794A7940A94D2F7E0
:100A700040E050E060E070E081E090E0A0E0B0E0B5
:100A800004C0880F991FAA1FBB1F2A95D2F7019790
:100A9000A109B1098E219F21A023B1230097A105AF
:100AA000B10521F041E050E060E070E04A295B29A7
:100AB0006C297D294D835E836F8378878EE190E07A
:100AC0008E1B9F0B9C838B8312C0309781F00E2E60
:100AD00004C0EE0CFF1C001F111F0A94D2F7ED8218
:100AE000FE820F831887CE1ADF0ADC82CB821A823D
:100AF000CE0101960E94CF052896EAE00C94B5112C
:100B0000EF92FF920F931F937B018C0180E0E81618
:100B100080E0F80681E0080780E0180788F48FEF8E
:100B2000E816F1040105110531F028F088E090E0A5
:100B3000A0E0B0E017C080E090E0A0E0B0E012C01C
:100B400080E0E81680E0F80680E0080781E01807FA
:100B500028F088E190E0A0E0B0E004C080E190E0FF
:100B6000A0E0B0E020E230E040E050E0281B390B8C
:100B70004A0B5B0B04C016950795F794E7948A958A
:100B8000D2F7F701EB54FF4F8081281B310941094F
:100B90005109C9011F910F91FF90EF900895DF92C5
:100BA000EF92FF920F931F93FC01E480F580068182
:100BB0001781D1808081823048F480E090E0A0E10C
:100BC000B0E0E82AF92A0A2B1B2BA5C0843009F4CF
:100BD0009FC0823021F4EE24FF24870105C0E11478
:100BE000F1040105110519F4E0E0F0E096C062811E
:100BF00073819FEF623879070CF05BC022E83FEF0A
:100C0000261B370B2A3131052CF020E030E040E084
:100C100050E02AC0B801A701022E04C0769567955E
:100C2000579547950A94D2F781E090E0A0E0B0E0B4
:100C300004C0880F991FAA1FBB1F2A95D2F70197DE
:100C4000A109B1098E219F21A023B1230097A105FD
:100C5000B10521F081E090E0A0E0B0E09A01AB01A5
:100C6000282B392B4A2B5B2BDA01C9018F77907027
:100C7000A070B07080349105A105B10539F427FF4B
:100C800009C0205C3F4F4F4F5F4F04C0215C3F4F76
:100C90004F4F5F4FE0E0F0E02030A0E03A07A0E0E7
:100CA0004A07A0E45A0710F0E1E0F0E079018A0178
:100CB00027C06038710564F5FB01E158FF4FD8018A
:100CC000C7018F779070A070B07080349105A10536
:100CD000B10539F4E7FE0DC080E490E0A0E0B0E09B
:100CE00004C08FE390E0A0E0B0E0E80EF91E0A1F18
:100CF0001B1F17FF05C016950795F794E7943196CB
:100D000087E016950795F794E7948A95D1F705C083
:100D1000EE24FF248701EFEFF0E06E2F6795662742
:100D20006795902F9F77D794DD24D7948E2F869543
:100D3000492F462B582F5D29B701CA011F910F91EA
:100D4000FF90EF90DF900895FC01DB01408151811D
:100D50002281622F6F7770E0221F2227221F93814A
:100D6000892F880F822B282F30E0991F9927991FF0
:100D700011969C93119721153105A9F5411551053F
:100D80006105710511F482E037C082E89FEF139688
:100D90009C938E9312979A01AB0167E0220F331F49
:100DA000441F551F6A95D1F783E08C930DC0220F25
:100DB000331F441F551F12968D919C9113970197D5
:100DC00013969C938E931297203080E0380780E032
:100DD000480780E4580758F314962D933D934D939C
:100DE0005C93179708952F3F310579F4411551050C
:100DF0006105710519F484E08C93089564FF03C0C4
:100E000081E08C9312C01C9210C02F573040139673
:100E10003C932E93129783E08C9387E0440F551FE9
:100E2000661F771F8A95D1F7706414964D935D9372
:100E30006D937C93179708951F93DC01FB019C91A0
:100E4000923008F447C08081823008F443C0943067
:100E500051F411961C91843099F58181682F70E0CE
:100E6000611B71093FC0843021F0923031F482302F
:100E7000B9F18181882389F12DC011961C911197B8
:100E80008230F1F081811817D9F412962D913C919E
:100E90001397828193818217930794F0281739075B
:100EA000BCF014968D919D910D90BC91A02D248144
:100EB000358146815781281739074A075B0718F49F
:100EC000112341F00AC082179307A407B50740F425
:100ED000112319F061E070E005C06FEF7FEF02C0F1
:100EE00060E070E0CB011F910895DF93CF93CDB701
:100EF000DEB7A7E2B0E0E7E2F0E0808180648C93A7
:100F0000A7E2B0E0E7E2F0E080818F778C93A6E281
:100F1000B0E0E6E2F0E0808181608C93A6E2B0E090
:100F2000E6E2F0E0808182608C93A6E2B0E0E6E247
:100F3000F0E080818B7F8C93A6E2B0E0E6E2F0E007
:100F4000808180688C93CF91DF910895DF93CF9358
:100F50000F92CDB7DEB78983A7E2B0E0E7E2F0E019
:100F60008081982F987F89818770892B8C93A6E246
:100F7000B0E0E6E2F0E0808180648C93E6E2F0E0AD
:100F8000808182958F70882F90E08170907000979B
:100F9000A9F3A6E2B0E0E6E2F0E0808180618C9304
:100FA000E4E2F0E08081282F30E0E5E2F0E08081AB
:100FB000882F90E0982F8827822B932B0F90CF912A
:100FC000DF910895DF93CF93CDB7DEB7E8970FB6E3
:100FD000F894DEBF0FBECDBFE4E3F0E08FEF808377
:100FE000A7E3B0E0E7E3F0E0808181608C93A7E3C2
:100FF000B0E0E7E3F0E0808182608C93A7E3B0E0AB
:10100000E7E3F0E0808184608C9380E090E0A0EFE3
:10101000B1E48DAB9EABAFABB8AF6DA97EA98FA984
:1010200098AD20E030E048E453E40E941F02DC0168
:10103000CB0189AB9AABABABBCAB69A97AA98BA945
:101040009CA920E030E040E85FE30E94250488236B
:101050002CF481E090E098AB8FA73FC069A97AA9F2
:101060008BA99CA920E03FEF4FE757E40E94C503FE
:1010700018164CF56DA97EA98FA998AD20E030E037
:1010800040E251E40E941F02DC01CB01BC01CD0112
:101090000E944900DC01CB0198AB8FA70FC084E10F
:1010A00090E09EA78DA78DA59EA50197F1F79EA71D
:1010B0008DA78FA598A9019798AB8FA78FA598A901
:1010C000009769F714C069A97AA98BA99CA90E9405
:1010D0004900DC01CB0198AB8FA78FA598A99CA7ED
:1010E0008BA78BA59CA50197F1F79CA78BA788E3FD
:1010F00090E00E94FE0A80E090E0A0E8BFE38FA3AA
:1011000098A7A9A7BAA76FA178A589A59AA520E055
:1011100030E048E453E40E941F02DC01CB018BA3C2
:101120009CA3ADA3BEA36BA17CA18DA19EA120E039
:1011300030E040E85FE30E94250488232CF481E03E
:1011400090E09AA389A33FC06BA17CA18DA19EA131
:1011500020E03FEF4FE757E40E94C50318164CF517
:101160006FA178A589A59AA520E030E040E251E47E
:101170000E941F02DC01CB01BC01CD010E9449008D
:10118000DC01CB019AA389A30FC084E190E098A36E
:101190008F8F8F8D98A10197F1F798A38F8F89A1D9
:1011A0009AA101979AA389A389A19AA1009769F7A7
:1011B00014C06BA17CA18DA19EA10E944900DC01FD
:1011C000CB019AA389A389A19AA19E8F8D8F8D8D22
:1011D0009E8D0197F1F79E8F8D8F8CE090E00E949D
:1011E000FE0A80E090E0A0E8BFE3898F9A8FAB8F82
:1011F000BC8F698D7A8D8B8D9C8D20E030E048E42A
:1012000053E40E941F02DC01CB018D8B9E8BAF8BC0
:10121000B88F6D897E898F89988D20E030E040E815
:101220005FE30E94250488232CF481E090E09C8BEE
:101230008B8B3FC06D897E898F89988D20E03FEF31
:101240004FE757E40E94C50318164CF5698D7A8D57
:101250008B8D9C8D20E030E040E251E40E941F0223
:10126000DC01CB01BC01CD010E944900DC01CB01B6
:101270009C8B8B8B0FC084E190E09A8B898B898942
:101280009A890197F1F79A8B898B8B899C890197B1
:101290009C8B8B8B8B899C89009769F714C06D8917
:1012A0007E898F89988D0E944900DC01CB019C8B3F
:1012B0008B8B8B899C89988B8F878F8598890197D9
:1012C000F1F7988B8F8781E090E00E94FE0A80E022
:1012D00090E0A0E0B0E48B879C87AD87BE876B85EC
:1012E0007C858D859E8520E030E048E453E40E94B3
:1012F0001F02DC01CB018F839887A987BA876F8192
:10130000788589859A8520E030E040E85FE30E9497
:10131000250488232CF481E090E09E838D833FC0D8
:101320006F81788589859A8520E03FEF4FE757E404
:101330000E94C50318164CF56B857C858D859E85AE
:1013400020E030E040E251E40E941F02DC01CB01CA
:10135000BC01CD010E944900DC01CB019E838D833D
:101360000FC084E190E09C838B838B819C810197EB
:10137000F1F79C838B838D819E8101979E838D8362
:101380008D819E81009769F714C06F81788589856A
:101390009A850E944900DC01CB019E838D838D815B
:1013A0009E819A83898389819A810197F1F79A8333
:1013B000898386E090E00E94FE0AE8960FB6F894D2
:1013C000DEBF0FBECDBFCF91DF910895DF93CF93E6
:1013D000CDB7DEB76D970FB6F894DEBF0FBECDBFA9
:1013E0008D8FA8E3B0E0E8E3F0E0808181608C932A
:1013F000A8E3B0E0E8E3F0E080818D7F8C93A8E380
:10140000B0E0E8E3F0E0808184608C93E5E3F0E015
:101410008D8D808380E090E0A0EAB0E4898F9A8F80
:10142000AB8FBC8F698D7A8D8B8D9C8D20E030E0E9
:1014300048E453E40E941F02DC01CB018D8B9E8B9C
:10144000AF8BB88F6D897E898F89988D20E030E0D1
:1014500040E85FE30E94250488232CF481E090E0BB
:101460009C8B8B8B3FC06D897E898F89988D20E006
:101470003FEF4FE757E40E94C50318164CF5698DFE
:101480007A8D8B8D9C8D20E030E040E251E40E940B
:101490001F02DC01CB01BC01CD010E944900DC012F
:1014A000CB019C8B8B8B0FC084E190E09A8B898B56
:1014B00089899A890197F1F79A8B898B8B899C8905
:1014C00001979C8B8B8B8B899C89009769F714C043
:1014D0006D897E898F89988D0E944900DC01CB013E
:1014E0009C8B8B8B8B899C89988B8F878F85988918
:1014F0000197F1F7988B8F87A8E3B0E0E8E3F0E07D
:1015000080818B7F8C9380E090E0A0E2B1E48B87B8
:101510009C87AD87BE876B857C858D859E8520E009
:1015200030E048E453E40E941F02DC01CB018F83CA
:101530009887A987BA876F81788589859A8520E001
:1015400030E040E85FE30E94250488232CF481E02A
:1015500090E09E838D833FC06F81788589859A85D1
:1015600020E03FEF4FE757E40E94C50318164CF503
:101570006B857C858D859E8520E030E040E251E4DE
:101580000E941F02DC01CB01BC01CD010E94490079
:10159000DC01CB019E838D830FC084E190E09C83AE
:1015A0008B838B819C810197F1F79C838B838D8149
:1015B0009E8101979E838D838D819E81009769F71F
:1015C00014C06F81788589859A850E944900DC0165
:1015D000CB019E838D838D819E819A8389838981AE
:1015E0009A810197F1F79A8389836D960FB6F894E3
:1015F000DEBF0FBECDBFCF91DF910895DF93CF93B4
:10160000CDB7DEB76D970FB6F894DEBF0FBECDBF76
:101610008D8FA8E3B0E0E8E3F0E080818E7F8C93CB
:10162000A8E3B0E0E8E3F0E080818D7F8C93A8E34D
:10163000B0E0E8E3F0E0808184608C93E5E3F0E0E3
:101640008D8D808380E090E0A0EAB0E4898F9A8F4E
:10165000AB8FBC8F698D7A8D8B8D9C8D20E030E0B7
:1016600048E453E40E941F02DC01CB018D8B9E8B6A
:10167000AF8BB88F6D897E898F89988D20E030E09F
:1016800040E85FE30E94250488232CF481E090E089
:101690009C8B8B8B3FC06D897E898F89988D20E0D4
:1016A0003FEF4FE757E40E94C50318164CF5698DCC
:1016B0007A8D8B8D9C8D20E030E040E251E40E94D9
:1016C0001F02DC01CB01BC01CD010E944900DC01FD
:1016D000CB019C8B8B8B0FC084E190E09A8B898B24
:1016E00089899A890197F1F79A8B898B8B899C89D3
:1016F00001979C8B8B8B8B899C89009769F714C011
:101700006D897E898F89988D0E944900DC01CB010B
:101710009C8B8B8B8B899C89988B8F878F859889E5
:101720000197F1F7988B8F87A8E3B0E0E8E3F0E04A
:1017300080818B7F8C9380E090E0A0E2B1E48B8786
:101740009C87AD87BE876B857C858D859E8520E0D7
:1017500030E048E453E40E941F02DC01CB018F8398
:101760009887A987BA876F81788589859A8520E0CF
:1017700030E040E85FE30E94250488232CF481E0F8
:1017800090E09E838D833FC06F81788589859A859F
:1017900020E03FEF4FE757E40E94C50318164CF5D1
:1017A0006B857C858D859E8520E030E040E251E4AC
:1017B0000E941F02DC01CB01BC01CD010E94490047
:1017C000DC01CB019E838D830FC084E190E09C837C
:1017D0008B838B819C810197F1F79C838B838D8117
:1017E0009E8101979E838D838D819E81009769F7ED
:1017F00014C06F81788589859A850E944900DC0133
:10180000CB019E838D838D819E819A83898389817B
:101810009A810197F1F79A8389836D960FB6F894B0
:10182000DEBF0FBECDBFCF91DF910895DF93CF9381
:1018300000D000D00F92CDB7DEB78A836B838FE7DD
:1018400089838B81882301F18B818131E8F48A813E
:10185000282F30E03D832C838C819D818130910540
:1018600031F02C813D812230310531F00AC089816F
:101870009B81890F898305C09B818981890F805C49
:10188000898389810E94FE0A0F900F900F900F901C
:101890000F90CF91DF910895DF93CF93CDB7DEB74F
:1018A00061970FB6F894DEBF0FBECDBF998B888BC2
:1018B0001F861F8680C08F85282F30E088899989F0
:1018C000FC01E20FF31F80810E94E60980E090E0B6
:1018D000A0E0B0E48B879C87AD87BE876B857C8555
:1018E0008D859E8520E030E048E453E40E941F028D
:1018F000DC01CB018F839887A987BA876F817885B0
:1019000089859A8520E030E040E85FE30E94250465
:1019100088232CF481E090E09E838D833FC06F810B
:10192000788589859A8520E03FEF4FE757E40E944C
:10193000C50318164CF56B857C858D859E8520E04A
:1019400030E040E251E40E941F02DC01CB01BC0107
:10195000CD010E944900DC01CB019E838D830FC025
:1019600084E190E09C838B838B819C810197F1F7CC
:101970009C838B838D819E8101979E838D838D8136
:101980009E81009769F714C06F81788589859A8553
:101990000E944900DC01CB019E838D838D819E8155
:1019A0009A83898389819A810197F1F79A83898340
:1019B0008F858F5F8F878F85282F30E08889998961
:1019C000FC01E20FF31F8081882309F074CF619638
:1019D0000FB6F894DEBF0FBECDBFCF91DF91089553
:1019E000DF93CF93CDB7DEB767970FB6F894DEBF1E
:1019F0000FBECDBF9F8B8E8B8E899F89009729F458
:101A00008E89805D0E94E60978C01D8A81E090E0A1
:101A1000A0E0B0E0898B9A8BAB8BBC8B15C08D8915
:101A20008F5F8D8B89899A89AB89BC892AE030E0E8
:101A300040E050E0BC01CD010E942911DC01CB0146
:101A4000898B9A8BAB8BBC8B8E899F89CC01A0E054
:101A5000B0E029893A894B895C89BC01CD010E949B
:101A60005B11DA01C9010097A105B105C1F6188A19
:101A70003FC089899A89AB89BC892AE030E040E07F
:101A800050E0BC01CD010E945B11DA01C901898BD4
:101A90009A8BAB8BBC8B8E899F89CC01A0E0B0E088
:101AA00029893A894B895C89BC01CD010E945B116F
:101AB000DA01C9018F878F85805D0E94E6098F85D5
:101AC000882F90E0A0E0B0E029893A894B895C89B1
:101AD000BC01CD010E942911DC01CB019C018E8942
:101AE0009F89821B930B9F8B8E8B88898F5F888B3E
:101AF00098898D89981708F4BCCF80E090E0A0E029
:101B0000B0E48B879C87AD87BE876B857C858D8590
:101B10009E8520E030E048E453E40E941F02DC018F
:101B2000CB018F839887A987BA876F81788589854C
:101B30009A8520E030E040E85FE30E942504882396
:101B40002CF481E090E09E838D833FC06F81788587
:101B500089859A8520E03FEF4FE757E40E94C5034F
:101B600018164CF56B857C858D859E8520E030E0D0
:101B700040E251E40E941F02DC01CB01BC01CD0117
:101B80000E944900DC01CB019E838D830FC084E15C
:101B900090E09C838B838B819C810197F1F79C83E0
:101BA0008B838D819E8101979E838D838D819E8104
:101BB000009769F714C06F81788589859A850E949E
:101BC0004900DC01CB019E838D838D819E819A83A8
:101BD000898389819A810197F1F79A83898367962E
:101BE0000FB6F894DEBF0FBECDBFCF91DF91089541
:101BF000DF93CF93CDB7DEB7E8970FB6F894DEBF8B
:101C00000FBECDBFEAE3F0E01082E1E3F0E081E057
:101C100080830E9475070E94E20781E090E064E003
:101C200070E00E94160C80E690E00E944C0C82E06E
:101C300090E061E070E00E94160C8BE690E00E945C
:101C40004C0C80E090E0AAE7B4E48DAB9EABAFAB68
:101C5000B8AF6DA97EA98FA998AD20E030E048E427
:101C600053E40E941F02DC01CB0189AB9AABABAB02
:101C7000BCAB69A97AA98BA99CA920E030E040E817
:101C80005FE30E94250488232CF481E090E098AB68
:101C90008FA73FC069A97AA98BA99CA920E03FEF33
:101CA0004FE757E40E94C50318164CF56DA97EA9AD
:101CB0008FA998AD20E030E040E251E40E941F027D
:101CC000DC01CB01BC01CD010E944900DC01CB014C
:101CD00098AB8FA70FC084E190E09EA78DA78DA53C
:101CE0009EA50197F1F79EA78DA78FA598A90197AB
:101CF00098AB8FA78FA598A9009769F714C069A919
:101D00007AA98BA99CA90E944900DC01CB0198AB60
:101D10008FA78FA598A99CA78BA78BA59CA501979A
:101D2000F1F79CA78BA781E090E00E94FE0A8CE768
:101D300090E00E944C0C82E090E061E070E00E9434
:101D4000160C80E090E00E94A6079C0184E690E0DB
:101D5000AC01249FC001259F900D349F900D11244C
:101D60002FEF33E0B9010E944811CB019C0184E6BA
:101D700090E0821B930B9093B9018093B8018091FE
:101D8000B8019091B9010E94F00C80E090E0AAE7C0
:101D9000B4E48FA398A7A9A7BAA76FA178A589A52E
:101DA0009AA520E030E048E453E40E941F02DC01E1
:101DB000CB018BA39CA3ADA3BEA36BA17CA18DA1E2
:101DC0009EA120E030E040E85FE30E9425048823E4
:101DD0002CF481E090E09AA389A33FC06BA17CA181
:101DE0008DA19EA120E03FEF4FE757E40E94C5037D
:101DF00018164CF56FA178A589A59AA520E030E0CA
:101E000040E251E40E941F02DC01CB01BC01CD0184
:101E10000E944900DC01CB019AA389A30FC084E191
:101E200090E098A38F8F8F8D98A10197F1F798A3D9
:101E30008F8F89A19AA101979AA389A389A19AA1B9
:101E4000009769F714C06BA17CA18DA19EA10E948F
:101E50004900DC01CB019AA389A389A19AA19E8F95
:101E60008D8F8D8D9E8D0197F1F79E8F8D8F81E0E7
:101E700090E00E94FE0A87E890E00E944C0C82E00D
:101E800090E061E070E00E94160C81E090E00E941A
:101E9000A607AA2797FDA095BA2FBC01CD010E94E5
:101EA0005504DC01CB01BC01CD0126EF38E24CE941
:101EB00050E40E941F02DC01CB01BC01CD010E9455
:101EC0004900DC01CB019093B7018093B60180916A
:101ED000B6019091B701CC01A0E0B0E0BC01CD010A
:101EE0000E940705DC01CB01BC01CD0120E030E000
:101EF00040E251E40E941903DC01CB01BC01CD0199
:101F00000E944900DC01CB019093B7018093B60198
:101F10008091B6019091B7010E94F00C80E090E0B2
:101F2000AAE7B4E4898F9A8FAB8FBC8F698D7A8DC5
:101F30008B8D9C8D20E030E048E453E40E941F022A
:101F4000DC01CB018D8B9E8BAF8BB88F6D897E8929
:101F50008F89988D20E030E040E85FE30E942504FF
:101F600088232CF481E090E09C8B8B8B3FC06D89A3
:101F70007E898F89988D20E03FEF4FE757E40E94DC
:101F8000C50318164CF5698D7A8D8B8D9C8D20E0DC
:101F900030E040E251E40E941F02DC01CB01BC01B1
:101FA000CD010E944900DC01CB019C8B8B8B0FC0C3
:101FB00084E190E09A8B898B89899A890197F1F75E
:101FC0009A8B898B8B899C8901979C8B8B8B8B89B6
:101FD0009C89009769F714C06D897E898F89988DD7
:101FE0000E944900DC01CB019C8B8B8B8B899C89E7
:101FF000988B8F878F8598890197F1F7988B8F87BA
:1020000081E090E00E94FE0A89E990E00E944C0C79
:1020100082E090E061E070E00E94160CE9E3F0E0FD
:1020200080818695869581708093BA018091BA01EE
:10203000882329F086EA90E00E944C0C04C089EACB
:1020400090E00E944C0C80E090E0AAE7B4E48B871B
:102050009C87AD87BE876B857C858D859E8520E0BE
:1020600030E048E453E40E941F02DC01CB018F837F
:102070009887A987BA876F81788589859A8520E0B6
:1020800030E040E85FE30E94250488232CF481E0DF
:1020900090E09E838D833FC06F81788589859A8586
:1020A00020E03FEF4FE757E40E94C50318164CF5B8
:1020B0006B857C858D859E8520E030E040E251E493
:1020C0000E941F02DC01CB01BC01CD010E9449002E
:1020D000DC01CB019E838D830FC084E190E09C8363
:1020E0008B838B819C810197F1F79C838B838D81FE
:1020F0009E8101979E838D838D819E81009769F7D4
:1021000014C06F81788589859A850E944900DC0119
:10211000CB019E838D838D819E819A838983898162
:102120009A810197F1F79A83898381E090E00E9478
:10213000FE0A0E949C10FBCDDF93CF93CDB7DEB794
:102140008091B8019091B9018A319105B0F4A2E370
:10215000B0E0E2E3F0E0808182608C93A2E3B0E043
:10216000E2E3F0E080818B7F8C93A2E3B0E0E2E3D6
:10217000F0E08081877F8C9340C08091B80190917E
:10218000B9018A319105E8F08091B8019091B901C7
:1021900083339105B0F4A2E3B0E0E2E3F0E08081A4
:1021A0008D7F8C93A2E3B0E0E2E3F0E08081846075
:1021B0008C93A2E3B0E0E2E3F0E08081877F8C9330
:1021C0001CC08091B8019091B90183339105A8F0AA
:1021D000A2E3B0E0E2E3F0E080818D7F8C93A2E3A4
:1021E000B0E0E2E3F0E080818B7F8C93A2E3B0E08B
:1021F000E2E3F0E0808188608C93CF91DF910895D5
:10220000DF93CF93CDB7DEB78091BA018823B9F4BD
:102210008091B8019091B9018233910540F4A2E315
:10222000B0E0E2E3F0E0808181608C930FC0A2E334
:10223000B0E0E2E3F0E080818E7F8C9307C0A2E300
:10224000B0E0E2E3F0E080818E7F8C93CF91DF916C
:102250000895629FD001739FF001829FE00DF11DF0
:10226000649FE00DF11D929FF00D839FF00D749F10
:10227000F00D659FF00D9927729FB00DE11DF91FBC
:10228000639FB00DE11DF91FBD01CF011124089519
:1022900097FB092E07260AD077FD04D02ED006D052
:1022A00000201AF4709561957F4F0895F6F7909588
:1022B00081959F4F0895A1E21A2EAA1BBB1BFD0119
:1022C0000DC0AA1FBB1FEE1FFF1FA217B307E40715
:1022D000F50720F0A21BB30BE40BF50B661F771F6D
:1022E000881F991F1A9469F760957095809590954D
:1022F0009B01AC01BD01CF010895AA1BBB1B51E19D
:1023000007C0AA1FBB1FA617B70710F0A61BB70B65
:10231000881F991F5A95A9F780959095BC01CD010A
:1023200008952F923F924F925F926F927F928F9279
:102330009F92AF92BF92CF92DF92EF92FF920F9354
:102340001F93CF93DF93CDB7DEB7CA1BDB0B0FB65E
:10235000F894DEBF0FBECDBF09942A88398848881B
:102360005F846E847D848C849B84AA84B984C884B1
:10237000DF80EE80FD800C811B81AA81B981CE0FA8
:10238000D11D0FB6F894DEBF0FBECDBFED0108958D
:04239000F894FFCFEF
:1023940057656C636F6D6520746F00536D61727463
:1023A4002049727269676174696F6E00536F696C5A
:1023B40020726561643A0054656D7065726174756C
:1023C400726520726561643A005261696E207374AB
:1023D400617475733A004F4E004F4646000000008A
:1023E40000000000000001020203030303040404CC
:1023F400040404040405050505050505050505058E
:10240400050505050506060606060606060606066D
:102414000606060606060606060606060606060658
:10242400060606060607070707070707070707073D
:102434000707070707070707070707070707070728
:102444000707070707070707070707070707070718
:102454000707070707070707070707070707070708
:1024640007070707070808080808080808080808ED
:1024740008080808080808080808080808080808D8
:1024840008080808080808080808080808080808C8
:1024940008080808080808080808080808080808B8
:1024A40008080808080808080808080808080808A8
:1024B4000808080808080808080808080808080898
:1024C4000808080808080808080808080808080888
:1024D4000808080808080808080808080808080878
:0624E400080808080800CA
:00000001FF
